:020000040000fa
:10a220006f2c26000e7f26000e0188000000000023
:10a230000c000700809c2900010020000f0007008f
:10a24000000020000000e0000200320000000200d8
:10a25000000000008ecf0200000000000040da0085
:10a260000000fe0040ac20000000e00002003200d0
:10a27000002020009001880000000600a102880054
:10a28000800078000000eb001a003700e2804000f8
:10a2900054a0b4009101ba00e280400054a0b40080
:10a2a0009102ba00e280400054a0b4000002eb002a
:10a2b000472bde00f507b200a6018800602ce10004
:10a2c00008003a000049eb000201e80002003900f2
:10a2d0003420ec0002f0a0008301e900f9ff3e0009
:10a2e000040037006128e100010032000082eb0029
:10a2f000040007001101ba000200e000e3ff3a0089
:10a300000000060004d0a300e20f49001c00390041
:10a31000810278003549ba000201e80002003900e4
:10a320003420ec0002f0a0008301e9000f003200ad
:10a330002549ba000201e800020039003420ec008f
:10a3400002f0a0008301e900080032000400e000f0
:10a350000600320015c9ba000201e8000200390007
:10a360003420ec0002f0a0008301e9008180e800c5
:10a3700054a0b4000300e000e2ff3a000000060031
:10a380009102ba00055978008301e900f7ff320015
:10a39000c82ade00055978008301e900f3ff320086
:10a3a0000400e000f1ff320011d9ba00eeff3700df
:10a3b0008c900400000000009e900400000000004b
:10a3c000b09004000000000056900400000000005f
:10a3d00068900400000000007a9004000000000073
:10a3e000c290040000000000d690040000000000ad
:10a3f000e8900400000000003a860400000000001d
:10a400004e86040000000000628604000000000088
:10a41000768604000000000088860400000000002a
:10a420009c86040000000000ae86040000000000ce
:10a43000c086040000000000d48604000000000074
:10a4400002850400000000001485040000000000e4
:10a45000268504000000000038850400000000008c
:10a460004a850400000000005a8504000000000036
:10a470006a850400000000007c85040000000000e4
:10a480008c850400000000009e8504000000000090
:10a49000b085040000000000c28504000000000038
:10a4a000d485040000000000e685040000000000e0
:10a4b000f68504000000000006860400000000008d
:10a4c0001886040000000000288604000000000038
:10a4d0006ecf040000000000fa8a040000000000b3
:10a4e0000c8b0400000000001e8b04000000000024
:10a4f000c48a040000000000d68a040000000000a6
:10a50000e88a040000000000308b04000000000016
:10a51000428b040000000000568b04000000000085
:10a52000ae7f040000000000c07f040000000000b7
:10a53000d07f040000000000e27f04000000000063
:10a54000f47f04000000000006800400000000000a
:10a5500016800400000000002880040000000000b5
:10a560001e7f040000000000307f04000000000097
:10a57000427f040000000000547f0400000000003f
:10a58000d87e040000000000ea7e04000000000005
:10a59000fc7e0400000000000e7f040000000000ac
:10a5a0003a800400000000004c800400000000001d
:10a5b00060800400000000007480040000000000bf
:10a5c000647f040000000000787f040000000000a9
:10a5d0008a7f0400000000009c7f0400000000004f
:10a5e000b001040001000000f8c9040000000000f0
:10a5f000b20104000100000084c304000000000058
:10a6000052de040000000000fcf70400000000001f
:10a6100036ef04000000000006d104000000000036
:10a62000b4f3040000000000ba01040001000000bf
:10a63000bc0104000100000088a00400000000002c
:10a64000cca6040000000000be01040001000000d0
:10a65000c00104000100000076f7040000000000c3
:10a660009c01040001000000a001040001000000a2
:10a67000bcf8040000000000c2010400010000005a
:10a6800088fd04000000000032d304000000000038
:10a69000eae8040000000000aaff04000000000037
:10a6a000baf704000000000020db040000000000f6
:10a6b00030e0040000000000e0c6040000000000dc
:10a6c0005cf40400000000007eec040000000000c8
:10a6d00092e50400000000005400f800a102880088
:10a6e0008002780062004000e08048003549ba00ee
:10a6f0003204e0000410a700100032008301e900da
:10a700000e0032002549ba003204e0000410a70010
:10a710000a0032008301e900080032000408a300a7
:10a72000eeff320015c9ba003204e0000410a700a1
:10a73000020032008301e900e8ff3a005400f9000a
:10a7400000000600889fbe008004780010e68200aa
:10a750000000e00003003a00470007000000e000ae
:10a760000a00350010e682000900e00002003a000d
:10a77000000478000600370000047800090040005b
:10a780003d0007000000e00001003d000084eb00f8
:10a79000080078004f04be00000006000a00fa001e
:10a7a00080017800e20f500028003e0020e6820081
:10a7b000e10f500008003200802320000000e0007c
:10a7c000050032000423200025232000462320001a
:10a7d0008001780004003700042220002522200098
:10a7e0004622200083222000144090000004e00054
:10a7f000040035008009eb00144090000074a000b4
:10a8000010429800154090000028a30003003a0071
:10a81000154090000024a000904298008001eb00b9
:10a8200007003700154090000008a300fdff32002c
:10a8300063c078000000fb00000b78008301e80093
:10a84000828f5100f7ff3a000800370030002000e7
:10a85000b0bf9f00c3bf9f00d1bf9f00e2bf9f005a
:10a860006a80570000c0da006fb9970002007800d4
:10a870000080fa0000000600800078000000e00080
:10a8800004003a0060cc250010e68a00010178003f
:10a89000060037000081eb00602c2600808f5000fe
:10a8a00002003e0011e68a000001eb000200780081
:10a8b00000000600881f7800000478005001be00e8
:10a8c0004000be00040040008580480006014900a9
:10a8d00087814900009cbe000294be000400e10094
:10a8e0000588e1000690e1000798e10002003100d0
:10a8f000680044001008e8004f04780000000600db
:10a90000f4874700889fbe008a9fbe008c9fbe00d0
:10a910008e1f78000205be000004be00d4b79f0061
:10a92000e5b79f00f6b79f0087bf9f000000eb00d0
:10a93000c0b79f00b0b79f00a0b79f0090b79f001f
:10a9400080b79f000d042000bfb097004fb0970064
:10a95000000140000000e0000f003d004f08de0055
:10a9600000007100c0b79f009e00070001003d007d
:10a9700012002000a100070001003d00120020008d
:10a98000a6000700b1000700b60007000f00400056
:10a99000c8ff0700220037004f08de0000067100e4
:10a9a000ccb79f008f00070001003d00120020007f
:10a9b0009200070001003d001200200097000700f0
:10a9c000a20007000fb297009fb297002fb3970025
:10a9d000bfb39700a90007000000520081805a0011
:10a9e00002015b0083815b0080b79f0091b79f00ed
:10a9f000a2b79f00b3b79f000007eb009f000700be
:10aa00000020e10001a8e10002b0e10003b8e1008c
:10aa1000010031001e0020000e005600c0b79f004c
:10aa20004fb297000400e00007003500100020003e
:10aa3000010020006011b8000804700089847000d3
:10aa40000a0571008b8571008d06e900beff3a0092
:10aa50000400e00003003d00820007000f004000fa
:10aa600094ff07004fa897000000e00004003a00a0
:10aa70000fb497009fb497002fb59700bfb597000c
:10aa8000940007004f0778004f06be004f05be0038
:10aa90004f04be004f01b10000000600881f78007f
:10aaa00018002000881f780095ff07008f87e900b5
:10aab0004f04780000000600801feb0090ff0700a5
:10aac0008f87e90000000600889fbe008a9fbe00b5
:10aad0008c1f78006e00070007003d007300070020
:10aae000e00f5b00e08f5b0007003d0032000700d5
:10aaf0000006eb00040037003400070002003d00b0
:10ab00002a0007001c00200072000700e3ff070076
:10ab10000203be000002be000c00e0000100320093
:10ab2000220007000400be000601be004f067800a8
:10ab30004f05be004f04be0000000600889fbe0007
:10ab40008a9fbe008c1f78005100070005003d0061
:10ab500056000700e00f5b00e08f5b0006003d0041
:10ab6000040037001900070003003d006000b80032
:10ab70006011b8001000070056000700ceff070064
:10ab80000203be000002be000c00e0000100320023
:10ab9000060007000400be000601be004f06780054
:10aba0004f05be004f04be00000006006000b80064
:10abb0006011b80000003700040250008582580080
:10abc0000603590087835900000006000006eb00c9
:10abd000e00f5200e08f5a00e00f5b00e08f5b0057
:10abe000000006000180400090b79f000001eb00cc
:10abf0008fb097000100e000000006000200700026
:10ac000090b79f000180400080b79f000001eb00db
:10ac1000ffa897000100e00000000600020070009d
:10ac200080b79f00018040006faa9700cf20de0010
:10ac300001007000f0af9f000402420025000700f1
:10ac40004f18de000002720000000600e4af9f0013
:10ac50000804440089844c000a054d008b854d0092
:10ac6000000006003fb29700cfb297005fb3970095
:10ac7000efb3970000fe2f00000006003fb09700e2
:10ac8000cfb097005fb19700efb1970000000600ca
:10ac90000205be000004be00e00f5000e08f580027
:10aca000e00f5900e08f5900000006006000b80076
:10acb0006011b80008045000898458000a05590042
:10acc0008b8559001c002000e00f5200e08f5a00d5
:10acd000000006000800be000a01be0000000600d9
:10ace0008001eb000200370061f079008301e80089
:10acf000828f5100fcff3a00000006000400fa00b9
:10ad0000e0bf9f00e4815700812978000002eb003a
:10ad10000f0037006fb89700904078007fb8970019
:10ad2000104078000402e80080cf50000400320098
:10ad30008180fb000080fb0000805000070037008e
:10ad40006fb897000000e800e0bf9f009309e8009b
:10ad5000820f5200efff3a000000eb000080fa0083
:10ad6000000006000c00fa00889fbe000004780076
:10ad7000cfb09700f0ff2700d0bf9f008004eb000a
:10ad800099bf9f0088bf9f00a8bf9f00200c200094
:10ad9000b0bf9f007881570070805700fa0007000d
:10ada0000fb89700094878000fb8970008045000c2
:10adb000080078004f04be000080fa000000060082
:10adc0008001eb0002003700817178008301e80008
:10add000828f5100fcff3a0000000600000378005b
:10ade00080027800020278008001eb000800370042
:10adf0000402e90063c07800805a78008301e8000b
:10ae00000004e00002003a008000eb00060037007a
:10ae1000828f5100f6ff3a00fbff37000040eb0045
:10ae200080f07a008100e800848f5000fbff3a0038
:10ae30000600780000000600800078003004e00082
:10ae4000feff3a00010050000000e900000006008b
:10ae5000889fbe008a9fbe008c9fbe0000017800c4
:10ae6000e1c725001100e0000b003a0020c82500d2
:10ae7000f0e38a00d0e38a0011e48a00e1e38a006b
:10ae8000214090000004a000a04098006140900084
:10ae90000004a000e0409800e7004100c208de0086
:10aea000c20cdd00e4e382006dcc2500602c26009e
:10aeb0000d05500022002000811f780011000900bc
:10aec0000205d80000067800cf007800c308dd0036
:10aed000e48540008001eb0066cc2500e5c7250035
:10aee0000100370001027800244090000008a30010
:10aef000020032000a003700110a7800940078003e
:10af0000214090000008a300fbff3200090142002d
:10af1000828f500002003900840f5100460031003a
:10af200094007800848f5000eeff3e00868f500022
:10af300002003900858f5000eaff3900d0e382001b
:10af4000800f52004f003a00858f50004d003a00ac
:10af50008301e800e18f5100e2ff36008c8f54003e
:10af6000040036008a8f5400020031000b04780080
:10af700012003700614ab8006151b900b0ff2f00dc
:10af8000010020000200500083805800800f520012
:10af9000818f5a000200350009047800070037004d
:10afa0000d805400922c2600020040001100090080
:10afb0000a80d8000a80b9000004780008007800f0
:10afc000e0fd070080017800e10f40002d00320015
:10afd000d0e3820003087800d2e3820064004100dd
:10afe000a2409000808f5100020032000104a000b6
:10aff000010037000104a1002141980008804100b0
:10b000006400500080097800d0e38a00e2c7250080
:10b0100002087800d1e38200214090000004a000e3
:10b02000a0409800234090000004a100a041980097
:10b0300002027800a7ff3700e2e38a00828f500007
:10b04000090036009200780080c72500a2419000d8
:10b0500003487800b1e38a00140978008040eb00cf
:10b06000e0e3820021409800e0e38200000a7800db
:10b07000244090000004a000204298006400420098
:10b08000010037000000eb004f06be004f05be0078
:10b090004f04be000000060064005000e0e38a0098
:10b0a000a04090000104a10021409800000006008b
:10b0b000889fbe008a9fbe0000057800e401500012
:10b0c00013001000c285de00234090000008a3009a
:10b0d00004003200e3e38a00234090000004a10052
:10b0e000a04198000100780059ff07000004780093
:10b0f0000000e000170032008a0f500015003200f7
:10b1000060b8970008005000c284de00898f5500a7
:10b1100001003600890578004259dd008a00780078
:10b1200008007800eefe07008a0f54000900310085
:10b130004248dd00000044008a0f50000500360040
:10b140000a00500000004400b2e38200c3e3820022
:10b150000288be00080078004f05be004f04be0004
:10b16000000006000000fa00cfb897006881570081
:10b1700080a12500040007000080fa0000000600fe
:10b1800081a12500b5023700fe874700889fbe00d9
:10b190008a9fbe008c9fbe008e1f7800f0b79f0074
:10b1a0000107780082bf9f000000eb00a0b79f005e
:10b1b0009f0237008006eb0050c2b30080cf5000e2
:10b1c000090032000100fb00ffb09700a302070056
:10b1d000e10f400096023200afb097008100e80016
:10b1e000a1b79f00920237009e407800d0c2b30002
:10b1f00080cf50000c00320007003c006d40500032
:10b2000080cf50000a0032006b40400080cf5000d9
:10b210000e003a000800370000c3b30080cf500092
:10b220000a003a00060037000d30a0000500370084
:10b230000d00a000030037000d10a0000100370032
:10b240000d20a0000e07e800e7ff37000d18a3004f
:10b25000010032000d00a1000d38a30001003200f2
:10b260000d20a1000100fb0002fd2f0002004000a4
:10b27000e90f50000e003e000002eb00c4b79f0033
:10b2800082017800cfb297006a28b9001e01fb0046
:10b290000001410003014100c2b79f005e00fb00b6
:10b2a00003004000e90f50000b003e00f5ff37009f
:10b2b0000006eb00ccb79f00a0c2b30080cf5000c7
:10b2c00005003a000fb89700c000780080bf9f00cb
:10b2d000c1b79f000e07e8000001eb00b2b79f0066
:10b2e000e0c2b3009e4f100018003a000de0a0002d
:10b2f0008e00e80064405000914f100002003200c0
:10b30000010778000c0037000fba9700c4027800dc
:10b3100084bf9f00b5b79f000e87e8000b00370081
:10b320003fb697006a60b90000004100030040008a
:10b33000b0b79f000e07e8001e01fb0003fd2f00c1
:10b3400003004100e90f5000f5ff3600be407800d1
:10b35000e1d79f00c0c6b30080cf5000220032006a
:10b360000f003c006940500080cf50007700320051
:10b3700004003c000104e000310232006b40500048
:10b380000f00370040c6b30080cf5000930032005a
:10b390006540400080cf50008b003a008f0037009e
:10b3a00030c7b30080cf50001a00320007003c00c5
:10b3b0006440500080cf5000110032000040e8008f
:10b3c00080cf500080003a000f00370050c7b30014
:10b3d00080cf5000800032006340400080cf50009a
:10b3e00079003a0009003700000028000d48a3004a
:10b3f00001003a000001200080867600d3ff37006c
:10b400000d60a000750037000d50a0000d70a00069
:10b41000720037008fb897004100780081bf9f000d
:10b42000000478000000e00001003a00089e2500ba
:10b430008004eb00010037008104e80089007800f7
:10b44000088044001004e000fbff3a003fb1970081
:10b450000200e00003003200890f510001003100ba
:10b46000820478000002eb00e4af9f00cfb29700a7
:10b47000898f52000200360009805200e0af9f0021
:10b480004368de00e10660001b003a000d0678000c
:10b4900009003700ffb0970000022000ef0107000d
:10b4a000e10f4000030032002fb097000000e800d9
:10b4b000a0b79f000c06e800efa89700810f560088
:10b4c000f4ff3a000081eb00e2af9f000a00370072
:10b4d000880078003100fb0001047800ffb097007d
:10b4e000de010700e10f4000030032002fb2970099
:10b4f0000402e800a4b79f000900e9008004780076
:10b50000e10f4000f2ff3a000006eb000d00e00002
:10b510000a003a00c6013700ffb097000002200081
:10b52000ce010700e10f400003003200afb29700e8
:10b530008502e800a5b79f000c06e8006fa89700f9
:10b54000800f5600f4ff3a00b90137008fb897001a
:10b550004100780081bf9f00cf80de0001017800ac
:10b56000820178000205be000004be000203be0096
:10b570000002be004822de00482edd0004027600f4
:10b58000e4d79f000d48a3000a0032000404e00045
:10b5900008003200e14f42000600320071fd2f002a
:10b5a00001804700044878001840980029002000d6
:10b5b00002003700f0d79f001900200072fd2f0015
:10b5c00002844700a1ff370064fd2f000484470078
:10b5d000190020009dff37000d0cb3000d0078000e
:10b5e000000cb20028003a000d00e00005003d000c
:10b5f0008fba97004505be004504be0085bf9f0079
:10b60000140037000d48a3000b0032000fbe970056
:10b610004c00be008cbf9f004f89de00cf91de0042
:10b620000002be0002037800820378000605be0017
:10b630000404be00070037008fb89700410078006f
:10b6400081bf9f0000047800cfc4de0009057800a8
:10b650008a057800e00f5400e08f5c00e00f5d0089
:10b66000e08f5d001f003d003d00b3006000b800aa
:10b670006011b80008045000898458000a05590078
:10b680008b855900170037000d00e00005003d00d4
:10b690000fb997004205be004204be0082bf9f0062
:10b6a000100037000d48a300070032000fba9700c2
:10b6b0004400be0084bf9f006011b8000205be00b8
:10b6c0000004be00070037008fba970045007800dd
:10b6d00085bf9f0000047800090020000a002000b8
:10b6e0000b0020003fb697000c00e00007003a0076
:10b6f000e00f5400e08f5c00e00f5d00e08f5d0024
:10b7000002003a0010002000b0b79f008d007800c2
:10b71000010cb200e1b79f0000042000808f5000b0
:10b720003000320003003c000100e000080032005d
:10b7300040003700000820006fb19700800f5100d3
:10b7400014003200000c2000800f510039003a0034
:10b7500014c0b300859025000b0037000400fb00e7
:10b760004300dd00050040005001be004000be0067
:10b770000040e10001c8e10002d0e10003d8e1008f
:10b780002b0039000442e800f44f5200f3ff3a0066
:10b790002700370000012000010020006011b800e0
:10b7a00014c0b3000040e10001c8e10002d0e10094
:10b7b00003d8e1001e003900450020000000d00041
:10b7c0008180d2000281d2008381d2008502e9000b
:10b7d000faff3a000442e800f04f5200f1ff3a004d
:10b7e0001300370080002000010020006011b80025
:10b7f00014c0b3000040e10001c8e10002d0e10044
:10b8000003d8e1000a0039003c0020000000d0000d
:10b810008180d2000281d2008381d2000c06e9002f
:10b82000faff3a000442e800f54f5200f1ff3a00f7
:10b83000e4d79f00efd097000100fb003fb19700d5
:10b84000820f500002003d00e2d79f000400370045
:10b850003fb29700800f520001003d00b0b79f003b
:10b86000cfb297000500e00004003200638066005c
:10b87000020032008502e900c5b79f000de8a30071
:10b880000b0032004fb697003fb09700800f560074
:10b8900003003c008000eb00c1b79f0004003700ac
:10b8a0004fb197003fb2970004015100c2b79f000b
:10b8b000efd297000500fb000006eb00dcaf9f0015
:10b8c000cfb09700808f50000200340000805000fd
:10b8d000d0af9f000d28a30037003200e180660042
:10b8e0000d18a3000c003200d00220000100e0007f
:10b8f00001003a000080e900ffb09700d700070080
:10b90000e10f40000e0032002fb197000201e80065
:10b91000a2b79f000a0037000100e00008003200d3
:10b92000ffb0970000022000cc000700e10f4000ac
:10b93000030032002fb297000402e800a4b79f0072
:10b94000dfaa97000500e0000f0032000006eb00c0
:10b95000ffb0970000032000c0000700e10f400087
:10b96000030032002fb097000000e800a0b79f004e
:10b970000c06e800dfa89700810f5600f4ff3a009c
:10b980000001eb00d2af9f003fb29700c320dd0063
:10b99000009025008080400091b79f004220dd008c
:10b9a0006400500080b79f006320b900f0af9f0093
:10b9b0006306500084003700dfaa97000500e0000e
:10b9c00011003200688066000f003a00000678001f
:10b9d000ffb0970000022000a0000700e10f400028
:10b9e000030032002fb097000000e800a0b79f00ce
:10b9f0000c06e800dfa89700810f5600f4ff3a001c
:10ba00000001eb00d2af9f00e18066000d18a3009b
:10ba10000c003200d00220000100e00001003a00da
:10ba20000080e900ffb097008c000700e10f4000a4
:10ba3000d5ff32002fb297000402e800a4b79f00a0
:10ba4000d1ff37000100e000cfff3200ffb09700c8
:10ba50000002200081000700e10f4000caff320011
:10ba6000afb297008502e800a5b79f00c6ff370078
:10ba700000042000efb09700808f500031003200aa
:10ba800003003c000100e000080032003e003700e7
:10ba9000000820006fb19700800f510011003200a4
:10baa000000c2000800f510037003a001fb09700b3
:10bab0003002be002003be000800be000a01be0026
:10bac000f6fb0700a4002000050020006033b8004a
:10bad000f9fb070004c3b30004424000e4d79f0011
:10bae00029003700759e2500d5b79f000d58a3008b
:10baf00002003a00809f2500d0b79f00140020006c
:10bb0000050020006033b8008fb097008100e90085
:10bb1000050033000402d0008582d2000683d200e3
:10bb20008783d200f9ff37000800be000a01be007b
:10bb3000dafb07006f0060005fb197006240780099
:10bb40001000370014002000050020006033b8000a
:10bb50000c0078000000e900050033000402d0006a
:10bb60008582d2000683d2008783d200f9ff370096
:10bb70000800be000a01be00c8fb07006740600065
:10bb80000043b000e0d79f00efd097000100fb001a
:10bb9000ffb0970031000700e10f400003003200c2
:10bba0002fb197000201e800a2b79f001fb29700d3
:10bbb0006802520094b79f008fb29700e48252004f
:10bbc00085b79f0063065600d0ff2f003fb1970056
:10bbd0000090b9007faa9700000042006300500067
:10bbe000800f5600a2ff3a000d38a300100032006b
:10bbf000dfaa97000500e0000d0034000006eb000e
:10bc0000ffb097000002200014000700e10f400081
:10bc1000030032002fb097000000e800a0b79f009b
:10bc20000c06e800dfa89700810f5600f4ff3a00e9
:10bc3000be407800e1d79f000104e0005dfd3a00be
:10bc40002fb097004f0778004f06be004f05be008b
:10bc50004f04be00ef01b10000000600889fbe0047
:10bc60000001780001047800b10090000118a300e1
:10bc70003d0032000198a30003003a001800900034
:10bc80000000e00038003a000190a0003104980064
:10bc900082047800f90fb200180090000000e00064
:10bca00002003a0028009000000c7800ea8f54004f
:10bcb00006003a00380090000078a30003003a0024
:10bcc00088007800d0002000e4ff07009800900072
:10bcd00058009000808f50000b0032000100e800f7
:10bce000100498001800780009587800000c7800bb
:10bcf00011c0b30040cb250001487800ea8f540002
:10bd000006003200190037008800780009407800ea
:10bd100019000700800478001400370038009000f4
:10bd20000088a3001100320018019000a8009000c4
:10bd30004800900099fa070098009000810f500089
:10bd400004003200380090000003b3003004980073
:10bd50008084eb000000eb001004980028009000a5
:10bd6000000c7800010037008084eb0009007800a7
:10bd70004f04be00000006000200fa00889fbe00cb
:10bd8000a0ff9f0001047800b100900081047800ba
:10bd90000904b200020032000000fb003600370048
:10bda0000118a30005003a000103b3003104980014
:10bdb000190498000080eb002f0037005800900015
:10bdc0000000e00006003a00480090001200200049
:10bdd000e680570071fa0700190498002400370024
:10bde000280090000000e00008003a0000cb250089
:10bdf00020049800000c78002000200050049800d7
:10be0000100498000130a00031049800180190003f
:10be1000a80090004800900060fa070028009000f9
:10be2000000c78000080eb001004980018007800e7
:10be3000aff8970001587800000c78002ff89700b1
:10be4000ea4f50000a003a00380090000088a30032
:10be50000700320018019000a800900048009000f0
:10be60004efa070019049800a8009000010c780011
:10be7000aff897000100fb004f04be000080fa00fd
:10be8000000006003600f800809fbe00829fbe00c2
:10be9000849fbe00869fbe008ec0a90082c4bf00e2
:10bea0000068a3001200320080c4bf000068a30035
:10beb0000f0032000004200000248800b0e182005e
:10bec0000000e0000a003200b0e182000000e9005a
:10bed000b0e18a00b0e182000000e00004003a0016
:10bee00082c4a90090e182000000e80090e18a008d
:10bef0008cc4bf000068a3000c0032008ac4bf00dd
:10bf00000068a300090032008cc4a90000042000ce
:10bf10005024880091e1820070005000808f500012
:10bf200002003a0000102000a0e08a008cc4bf008c
:10bf30000008a300080032008ac4bf000008a30064
:10bf40000500320010002000502488008c04a90055
:10bf50000000eb00a0e08a008cc4bf000038a30002
:10bf6000cf0032008ac4bf000038a300cc003200ea
:10bf70008cc4bf000018a300080032008ac4bf00b0
:10bf80000018a30005003200a0e1820030589000a4
:10bf900063406000e14f5000c1003a00e0c225005c
:10bfa0001044a100922480008000200050248800ca
:10bfb000a4e18200a4589000f0248000ef8060008b
:10bfc0006f006000808f5000b4003a006400610090
:10bfd0000238a30005003200c2c025000000e000c6
:10bfe00006003a0082c025000400370042c0250048
:10bff0000000e00001003a0002c0250000c023005c
:10c000009200600000802000808f500037003a00ce
:10c01000f03f200012016000040890009408900096
:10c0200002004000e0804800000a9800110a9800d1
:10c030000000eb00700a9800344090004300de00de
:10c04000610060000004a2004300dd00b4409000e5
:10c050000134a10080c07000314298000458900063
:10c06000f04f5000080032008458900000c2b30026
:10c0700080cf50000400320084589000704040008f
:10c0800080cf500032003a000409900094099000db
:10c090007400900001002000800f5100818f590032
:10c0a0007e0039006000b800000a9800110a98006c
:10c0b0000a00370004099000940990005400900091
:10c0c000e4009000800f5100818f59007300390007
:10c0d000344090000004a0003042980004589000c2
:10c0e0000040e800005a98006c00370000c02000b3
:10c0f000808f50000300320000c02200808f50006b
:10c100001b003a00f03f200012016000040890007c
:10c110009408900002004000e0804800000a980067
:10c12000110a98000000eb00700a9800344090005b
:10c130004300de00610060000004a2004300dd0057
:10c14000b44090000134a10080c0700031429800da
:10c150003458900063406000e14f5000dcff320033
:10c1600044009000800f5100d9ff3900d1ff370003
:10c1700000802200808f500021003a00344090005f
:10c180000044a00030429800740890000000e800cd
:10c19000700a98003458900063006000e10f50006e
:10c1a000cbff320003003c000000e000080032003a
:10c1b0003a003700e20f500005003200e30f500054
:10c1c00036003a00245890000004e000c0ff35001b
:10c1d000344090000058a30030003200f408900072
:10c1e00004109000808f50002c00360024409000f6
:10c1f0000064a0002042980070c1b300070037001f
:10c2000000802300808f50000a003a0024409000f4
:10c210000054a0002042980010c1b300405a98007a
:10c220000458900001cfb30001406000f040b3001b
:10c23000acff3700a44090008140e800ffc06000e0
:10c240002440900002ceb300024060000140700024
:10c2500020429800244090007f006000f30f5000bf
:10c260000e003400244090000064a000204298009a
:10c2700030c1b300405a98000458900001cfb30079
:10c2800001406000f040b300005a9800f00f200019
:10c29000702488002000200050248800d72a07003e
:10c2a0008cc4bf000028a3002b0032008ac4bf004a
:10c2b0000028a300280032004000200050248800fd
:10c2c00042e182001a003700220090000000e000e6
:10c2d00016003200a000900004302000031020005f
:10c2e00010003700510890000030b200840f500059
:10c2f00002003200830f500006003a003100900027
:10c300000000e00003003200310090000000e9006e
:10c31000b0009800314090000044a100b040980067
:10c32000910078000100e000eeff3a001201780071
:10c330000200e000e4ff3a00e0c225001004a10082
:10c340001014a1001024a1001034a10000c3250086
:10c3500002487800a92a07008cc4bf000018a30077
:10c36000440032008ac4bf000018a300410032001c
:10c37000e0c225001044a100a3e1820033589000e0
:10c3800063406000e14f500036003200a34090004f
:10c390008140e800ffc060002340900002ceb3005f
:10c3a0000240600001407000a041980023409000ce
:10c3b0007f006000f30f50002a0034008e44e2003a
:10c3c00002003d0000c2b300c05998008ec4bf00f7
:10c3d0000058a3000200320010c2b300c0599800f8
:10c3e0008ec4bf000048a3000200320020c2b30088
:10c3f000c05998008ec4bf000038a300020032006c
:10c4000030c2b300c05998008ec4bf000028a300fa
:10c410000200320040c2b300c05998008ec4bf0071
:10c420000018a3000200320050c2b300c0599800a7
:10c430008ec4bf000008a3000200320060c2b30037
:10c44000c0599800234090000064a000a0419800cb
:10c450000358900001cfb30001406000f040b300ea
:10c4600080599800f00f20007024880020002000e0
:10c47000502488004f03be004f02be004f01be0093
:10c480004f00be003600f900004006000040da0010
:04c490000000fe00aa
:020000040000fa
:10a00000105104000000000046620400000000003f
:10a0100046620400000000004662040000000000e8
:10a0200046620400000000004662040000000000d8
:10a030004662040000000000a28a04000000000044
:10a0400046620400000000004662040000000000b8
:10a05000808a040000000000466204000000000046
:10a0600046620400000000008ab504000000000001
:10a070004662040000000000ee8c040000000000b6
:10a080003c84040000000000c482040000000000c2
:10a09000eab6040000000000466204000000000070
:10a0a00090920400000000004662040000000000de
:10a0b000aeae040000000000466204000000000094
:10a0c000d689040000000000b489040000000000ec
:10a0d0004662040000000000466204000000000028
:10a0e0004662040000000000308804000000000008
:10a0f00046620400000000007e84040000000000ae
:10a10000a28204000000000046620400000000007b
:10a11000108d0400000000005e8a040000000000b2
:10a120003c8a0400000000001a8a040000000000bd
:10a13000f8890400000000004662040000000000ee
:10a1400046620400000000004662040000000000b7
:10a1500046620400000000004662040000000000a7
:10a160004662040000000000b292040000000000fb
:10a170004662040000000000466204000000000087
:10a180004662040000000000466204000000000077
:10a190004662040000000000466204000000000067
:10a1a0004662040000000000466204000000000057
:10a1b0004662040000000000c084040000000000ab
:10a1c00080820400000000004662040000000000dd
:10a1d000d492040000000000466204000000000069
:10a1e00088800400000000005e820400000000007f
:10a1f0004662040000000000328d040000000000f0
:10a200004662040000000000928904000000000083
:10a2100060b6040000000000425f0400000000007f
:020000040000fa
:10c4940010ff0000ff020000040300000c0b00006a
:10c4a400ff250000181700001619000014ff0000f3
:10c4b400ffff0000ffff0000ffff0000ffff000080
:10c4c400ffff0000ff1500001a1300001b120000fc
:10c4d4001cff00000d01000000060000070800001a
:10c4e40009ff0000ffff0000ff0e00001d0a00000e
:10c4f400110000006a000000760000005e000000e9
:10c50400800000007fff0000640000007000000055
:10c5140058000000800000007fff0000640000005d
:10c52400700000005800000040000000bfff000041
:10c5340068000000740000005c000000200000009f
:10c54400dfff000068000000740000005c000000d1
:10c5540040000000bfff00006800000074000000fd
:10c564005c000000800000007fff00006800000005
:10c57400740000005c00000000010000fffe0000e9
:10c5840068000000740000005c000000020000006d
:10c59400fdff0000620000006e0000005600000075
:10c5a40002000000fdff0000620000006e000000b9
:10c5b4005600000001000000feff000068000000bb
:10c5c400740000005c00000004000000fbff000099
:10c5d40068000000740000005c0000000800000017
:10c5e400f7ff000068000000740000005c00000019
:10c5f40010000000efff0000620000006e00000069
:10c604005600000000200000ffdf00006200000070
:10c614006e0000005600000000400000ffbf000054
:10c62400620000006e000000560000000080000060
:10c63400ff7f00006400000070000000580000004c
:10c6440001000000feff00006a0000007600000008
:10c654005e00000010000000efff00006a00000010
:10c66400760000005e00000020000000dfff0000f4
:10c6740068000000740000005c000000000400007a
:10c68400fffb000068000000740000005c00000074
:10c6940000080000fff700006800000074000000bc
:10c6a4005c00000000100000ffef000068000000c4
:10c6b400740000005c00000000200000ffdf0000a8
:10c6c40068000000740000005c00000000400000ee
:10c6d400ffbf000068000000740000005c00000060
:10c6e40000800000ff7f00006a0000007600000068
:10c6f4005e00000001000000feff00006a00000070
:10c70400760000005e00000002000000fdff000053
:10c71400620000006e0000005600000000010000ee
:10c72400fffe0000620000006e00000056000000e2
:10c7340000020000fffd0000620000006e00000027
:10c744005600000000040000fffb0000620000002f
:10c754006e0000005600000000080000fff7000013
:10c76400620000006e00000056000000800000001f
:10c774007fff0000620000006e0000005600000011
:10c7840040000000bfff0000620000006e000000d7
:10c794005600000020000000dfff000062000000df
:10c7a4006e0000005600000010000000efff0000c3
:10c7b400620000006e000000560000000800000047
:10c7c400f7ff0000620000006e0000005600000049
:10c7d40004000000fbff0000640000007000000083
:10c7e4005800000000010000fffe0000640000008b
:10c7f400700000005800000000020000fffd00006f
:10c8040064000000700000005800000000040000f4
:10c81400fffb0000640000007000000058000000ee
:10c8240000080000fff70000640000007000000032
:10c834005800000000100000ffef0000640000003a
:10c84400700000005800000000200000ffdf00001e
:10c854006400000070000000580000000040000068
:10c86400ffbf0000640000007000000058000000da
:10c8740000800000ff7f00006600000072000000de
:10c884005a00000001000000feff000062000000ea
:10c894006e0000005600000000100000ffef0000d2
:10c8a4006400000070000000580000000200000056
:10c8b400fdff00006400000070000000580000004c
:10c8c40004000000fbff0000e8020000ea0400008e
:10c8d400ea020000ec020000ee0200001a1c000054
:10c8e400021c00000e1c000008000000f7ff0000fe
:10c8f400d0020000e4040000d2020000d4020000d0
:10c90400d6020000201c0000081c0000141c0000bb
:10c9140000100000ffef0000d0020000e40400005b
:10c92400d2020000d4020000d6020000201c000045
:10c93400081c0000141c000000800000ff7f0000a1
:10c94400d8020000e6040000da020000dc02000065
:10c95400de0200001e1c0000061c0000121c000069
:10c9640000010000fffe0000d8020000e604000001
:10c97400da020000dc020000de0200001e1c0000df
:10c98400061c0000121c000000020000fffd000055
:10c99400d8020000e6040000da020000dc02000015
:10c9a400de0200001e1c0000061c0000121c000019
:10c9b40000040000fffb0000d8020000e6040000b1
:10c9c400da020000dc020000de0200001e1c00008f
:10c9d400061c0000121c000000080000fff7000005
:10c9e400d8020000e6040000da020000dc020000c5
:10c9f400de0200001e1c0000061c0000121c0000c9
:10ca040001000000feff0000d0020000e40400006a
:10ca1400d2020000d4020000d6020000201c000054
:10ca2400081c0000141c000000200000ffdf0000b0
:10ca3400d0020000e4040000d2020000d40200008e
:10ca4400d6020000201c0000081c0000141c00007a
:10ca540000400000ffbf0000d8020000e604000010
:10ca6400da020000dc020000de0200001e1c0000ee
:10ca7400061c0000121c000002000000fdff000064
:10ca8400d8020000e6040000da020000dc02000024
:10ca9400de0200001e1c0000061c0000121c000028
:10caa40004000000fbff0000d8020000e6040000c0
:10cab400da020000dc020000de0200001e1c00009e
:10cac400061c0000121c000008000000f7ff000014
:10cad400d8020000e6040000da020000dc020000d4
:10cae400de0200001e1c0000061c0000121c0000d8
:10caf40010000000efff0000d8020000e604000070
:10cb0400da020000dc020000de0200001e1c00004d
:10cb1400061c0000121c000020000000dfff0000c3
:10cb2400d8020000e6040000da020000dc02000083
:10cb3400de0200001e1c0000061c0000121c000087
:10cb440040000000bfff0000d8020000e60400001f
:10cb5400da020000dc020000de0200001e1c0000fd
:10cb6400061c0000121c0000800000007fff000073
:10cb7400e8020000ea040000ea020000ec020000ff
:10cb8400ee0200001a1c0000021c00000e1c000033
:10cb940001000000feff0000e8020000ea040000bb
:10cba400ea020000ec020000ee0200001a1c000081
:10cbb400021c00000e1c000002000000fdff00002b
:10cbc400e002000000000000e2020000e4020000b5
:10cbd400e60200001c1c0000041c0000101c0000e5
:10cbe40001000000feff0000e00200000000000061
:10cbf400e2020000e4020000e60200001c1c000047
:10cc0400041c0000101c000002000000fdff0000d6
:10cc1400e002000000000000e2020000e402000064
:10cc2400e60200001c1c0000041c0000101c000094
:10cc340004000000fbff0000e00200000000000010
:10cc4400e2020000e4020000e60200001c1c0000f6
:10cc5400041c0000101c000008000000f7ff000086
:10cc6400e002000000000000e2020000e402000014
:10cc7400e60200001c1c0000041c0000101c000044
:10cc840010000000efff0000e002000000000000c0
:10cc9400e2020000e4020000e60200001c1c0000a6
:10cca400041c0000101c000020000000dfff000036
:10ccb400e002000000000000e2020000e4020000c4
:10ccc400e60200001c1c0000041c0000101c0000f4
:10ccd40040000000bfff0000e00200000000000070
:10cce400e2020000e4020000e60200001c1c000056
:10ccf400041c0000101c0000800000007fff0000e6
:10cd0400f0020000ec040000f2020000f402000053
:10cd1400f6020000181c0000001c00000c1c00009f
:10cd240040000000bfff0000f0020000ec0400001f
:10cd3400f2020000f4020000f6020000181c0000d9
:10cd4400001c00000c1c0000800000007fff00009d
:10cd5400f0020000ec040000f2020000f402000003
:10cd6400f6020000181c0000001c00000c1c00004f
:10cd740000010000fffe0000f0020000ec040000cf
:10cd8400f2020000f4020000f6020000181c000089
:10cd9400001c00000c1c000000020000fffd00004d
:10cda400c8020000e2040000ca020000cc02000035
:10cdb400ce020000221c00000a1c0000161c000009
:10cdc40020000000dfff0000c8020000e2040000b1
:10cdd400ca020000cc020000ce020000221c0000a7
:10cde4000a1c0000161c000010000000efff0000e9
:10cdf400c8020000e2040000ca020000cc020000e5
:10ce0400ce020000221c00000a1c0000161c0000b8
:10ce140008000000f7ff0000c8020000e204000060
:10ce2400ca020000cc020000ce020000221c000056
:10ce34000a1c0000161c000004000000fbff000098
:10ce4400c8020000e2040000ca020000cc02000094
:10ce5400ce020000221c00000a1c0000161c000068
:10ce640002000000fdff0000c8020000e204000010
:10ce7400ca020000cc020000ce020000221c000006
:10ce84000a1c0000161c000001000000feff000048
:10ce9400c8020000e2040000ca020000cc02000044
:10cea400ce020000221c00000a1c0000161c000018
:10ceb40040000000bfff0000c8020000e2040000c0
:10cec400ca020000cc020000ce020000221c0000b6
:10ced4000a1c0000161c0000800000007fff0000f8
:10cee400c8020000e2040000ca020000cc020000f4
:10cef400ce020000221c00000a1c0000161c0000c8
:10cf040000010000fffe0000c8020000e20400006f
:10cf1400ca020000cc020000ce020000221c000065
:10cf24000a1c0000161c000000020000fffd0000a7
:10cf3400c8020000e2040000ca020000cc020000a3
:10cf4400ce020000221c00000a1c0000161c000077
:10cf540000040000fffb0000c8020000e20400001f
:10cf6400ca020000cc020000ce020000221c000015
:10cf74000a1c0000161c000000080000fff7000057
:10cf8400c8020000e2040000ca020000cc02000053
:10cf9400ce020000221c00000a1c0000161c000027
:10cfa40000100000ffef0000c8020000e2040000cf
:10cfb400ca020000cc020000ce020000221c0000c5
:10cfc4000a1c0000161c000000200000ffdf000007
:10cfd400c8020000e2040000ca020000cc02000003
:10cfe400ce020000221c00000a1c0000161c0000d7
:10cff40000400000ffbf0000c8020000e20400007f
:10d00400ca020000cc020000ce020000221c000074
:10d014000a1c0000161c000000800000ff7f0000b6
:10d02400e8020000ea040000ea020000ec0200004a
:10d03400ee0200001a1c0000021c00000e1c00007e
:10d0440010000000efff0000e8020000ea04000006
:10d05400ea020000ec020000ee0200001a1c0000cc
:10d06400021c00000e1c000020000000dfff000076
:10d07400050000000400000003000000020000009e
:10d08400010000000000000006000000070000008e
:10d0940008000000090000000a0000000b00000066
:10d0a4000c0000000d0000000e0000000f00000046
:10d0b4002423000022210000201f00002526000058
:10d0c40027280000292a00002b2c00002d2e000008
:10d0d4002423000022210000201f00002526000038
:10d0e40027280000292a00002b2c00002d2e0000e8
:10d0f400ffff0000ffff0000ffff0000ffff000034
:10d10400ffff0000ffff000001080000090200000b
:10d11400070a00000b0c00000d0e00000f100000a9
:10d124000304000005060000ffff0000ffff0000ed
:10d13400131400001516000017180000191a000037
:10d14400ffff0000ffff0000ffff0000ffff0000e3
:10d1540011120000ff0000002f300000ffff00004c
:10d16400ffff0000ffff0000ffff0000ffff0000c3
:10d17400ffff0000ffff0000ffff00001b1c00007a
:10d184001d1e0000ffff0000ffff0000ffff000066
:10d19400000000000000000000000000000000008b
:10d1a400000000000000000000000000000000007b
:10d1b4004e00000046f40000dae8000032310000be
:10d1c4000000000045f40000e0e800003200000028
:10d1d40044f40000e8e8000043f40000e8e800003c
:10d1e400313200003100000048f40000f2e8000091
:10d1f400313200000000000042f40000fae80000b0
:10d2040041f40000e0e8000049f40000e0e8000018
:10d2140042310000323100000000000047f40000f9
:10d224000ae90000423100000000000040f4000060
:10d2340014e900003400000031f400001ce900008f
:10d244005300000030f4000022e9000025f400003f
:10d25400e0e8000024f40000e8e8000023f4000003
:10d26400e8e80000323200000000000022f4000070
:10d2740034e9000021f40000e0e80000423200003c
:10d284003200000026f4000040e9000042320000b1
:10d294000000000020f4000048e900003100000014
:10d2a40008f4000050e9000007f4000050e9000011
:10d2b40006f4000050e900000000000005f400003e
:10d2c4005ee9000004f400005ee9000003f40000dd
:10d2d40050e9000002f4000050e9000001f40000ed
:10d2e4005ee90000091000005ee90000051000007e
:10d2f4005ee90000031000005ee900003131000027
:10d30400000000006d0c000080e900006c0c0000bf
:10d314005ee90000560c000050e9000031450000b1
:10d3240000000000520c000090e90000450c0000d1
:10d3340050e900004832000000000000370c0000f3
:10d344009ce9000048000000360c0000a4e900003d
:10d35400323100003232000000000000330c0000c3
:10d36400aae900002a0c000050e90000290c000082
:10d374005ee9000033000000240c0000bce900005a
:10d38400200c000050e900001a0c000050e90000d5
:10d39400180c0000e8e80000130c0000dae80000b4
:10d3a400120c000014e90000030c00005ee9000008
:10d3b4003434000000000000010c0000dae9000031
:10d3c4000d0800009ce900000c080000a4e900001e
:10d3d4000b08000014e9000009080000a4e900009b
:10d3e40048310000313400003434000034000000bf
:10d3f40007080000f2e90000483200003232000061
:10d404003200000003080000fee9000042000000b2
:10d414001a04000008ea0000423100003132000022
:10d4240000000000190400000eea000015040000ca
:10d43400a4e90000483100000000000013040000cb
:10d444001cea000011040000a4e900000e0400001e
:10d4540008ea000042310000500000000d04000002
:10d464002cea00000c04000008ea0000425000000e
:10d47400000000000b04000038ea00000a04000069
:10d4840014e900000904000014e900000804000085
:10d4940008ea0000060400001cea00004232000012
:10d4a40031310000323100000000000005040000aa
:10d4b40050ea0000020400005ee90000333100007d
:10d4c400310000000104000060ea00000091000047
:10d4d400e372000007960000e47500000e9f000050
:10d4e400ed7c000009980000ea7b00001c8d000020
:10d4f400ff6e00001b8a0000f86900001283000020
:10d50400f160000015840000f667000038a90000ef
:10d51400db4a00003fae0000dc4d000036a70000ef
:10d52400d544000031a00000d243000024b500001f
:10d53400c756000023b20000c05100002abb0000ff
:10d54400c95800002dbc0000ce5f000070e100004f
:10d554009302000077e60000940500007eef0000cf
:10d564009d0c000079e800009a0b00006cfd00009f
:10d574008f1e00006bfa00008819000062f300009f
:10d584008110000065f400008617000048d90000ef
:10d59400ab3a00004fde0000ac3d000046d700006f
:10d5a400a534000041d00000a233000054c500009f
:10d5b400b726000053c20000b02100005acb00007f
:10d5c400b92800005dcc0000be2f0000e07100000f
:10d5d40003920000e776000004950000ee7f00004f
:10d5e4000d9c0000e97800000a9b0000fc6d00001f
:10d5f4001f8e0000fb6a000018890000f26300001f
:10d6040011800000f564000016870000d84900006e
:10d614003baa0000df4e00003cad0000d6470000ee
:10d6240035a40000d140000032a30000c45500001e
:10d6340027b60000c352000020b10000ca5b0000fe
:10d6440029b80000cd5c00002ebf0000900100004e
:10d6540073e200009706000074e500009e0f0000ce
:10d664007dec0000990800007aeb00008c1d00009e
:10d674006ffe00008b1a000068f90000821300009e
:10d6840061f000008514000066f70000a83900006e
:10d694004bda0000af3e00004cdd0000a63700006e
:10d6a40045d40000a130000042d30000b42500009e
:10d6b40057c60000b322000050c10000ba2b00007e
:10d6c40059c80000bd2c00005ecf000025300000ca
:10d6d400327800003a25000030320000783a000029
:10d6e40025300000327800003a2500003032000076
:10d6f400783a000025300000327800003a25000016
:10d70400303200007800000000000000000000003b
:10d7140000000000100000008000000000800000f5
:10d724005f9b000034fb00004e4900004c000000e9
:10d73400554900004e540000004900004e540000ba
:10d7440000550000554900004400000053540000f7
:10d75400524900004e470000004200004f4f0000b5
:10d764004c00000044450000530000004445000004
:10d7740041000000555200004c00000096eb0000f0
:10d784009aeb00009feb0000a3eb0000a8eb000065
:10d79400afeb0000b4eb0000b8eb0000bceb000002
:10d7a4002020000020200000007400007970000098
:10d7b40065200000253500007320000028250000a6
:10d7c400752900002c200000656c0000656d0000c8
:10d7d400656e0000742000006c6500006e2000007f
:10d7e4002532000075200000002c00002076000087
:10d7f400616c0000756500003a200000006c0000b8
:10d80400656e00002025000075200000283000000f
:10d814007825000030320000782900000a0000005a
:10d824002c200000766100006c750000653a000051
:10d834002030000078250000303800006c780000ab
:10d844000a0000001c0000000100000001000000ac
:10d8540001020000000000000000000001010000bf
:10d8640001020000010200000201000002020000a7
:10d87400020200000000000001010000010000009d
:10d884000400000008010000010100000102000082
:10d894000203000003010000010300000102000074
:10d8a4000203000002010000040000000300000065
:10d8b400000000000102000002000000494f0000c7
:10d8c400494f0000303300003233000000000000f4
:10d8d400030500001c1e0000080b000021070000c7
:10d8e4000a200000494f0000494f0000303000007a
:10d8f40030330000004900004f4900004f30000061
:10d904003030000032000000494f0000494f000051
:10d914003030000030310000000000000000000042
:10d924003600000053000000110000001b0000003e
:10d934000000000000000000000000006f01000073
:10d944002802000079000000b7000000a7020000d0
:10d95400fd030000e000000053010000001c000073
:10d964000000000000080000000c0000000000009f
:10d97400000000000200000002000000020000009d
:10d984000300000002000000230000002400000047
:10d994002500000044000000323200000032000084
:10d9a4003232000032000000323200004400000035
:10d9b4003232000032440000003200000000000057
:10d9c40030310000323300003435000036370000b7
:10d9d400383900004142000043440000454600003d
:10d9e40074630000703a00003435000034350000e0
:10d9f40000000000001c0000000c000000080000f3
:10da0400000400009d000000250000000d0000003f
:08da1400555300004200000020
:020000040000fa
:10da1c000200fa00889fbe008a9fbe008c1f78000f
:10da2c00a0e08200e10f400004003200a0e0820080
:10da3c0090e18a000080eb00a0e08a0090e1820077
:10da4c0009f020000904600000202000800f540021
:10da5c00c701320006003e000800e0000e00320054
:10da6c0000102000800f5400cc043a008c003700ca
:10da7c0000402000800f54006f043200035020003f
:10da8c00830f54008f04320000302000800f5400ac
:10da9c00c2043a00f401370091e18200010fb20098
:10daac00f08f50005500320000022000808f500093
:10dabc005c0032000100e000b8043a00104207009c
:10dacc0050e182000808780050e1820018009800ac
:10dadc0051e18200314090000024a000b040980039
:10daec0051e18200314090000014a000b040980039
:10dafc0051e18200314090000054a000b0409800e9
:10db0c0052e1820040012000001198000004200026
:10db1c00400198006000b8000009980011099800b5
:10db2c002859980050e182000858980052e1820070
:10db3c0052089000f1cf2f000100600050099800ae
:10db4c0080c0eb0050e182001158980031c0b30046
:10db5c0080c3250001487800c0c125000848780022
:10db6c00d0c1250008487800e0c12500084878009d
:10db7c0068e18a0048e18a0078e18a00682488001c
:10db8c00f10f200051248800c00820008224b60028
:10db9c006f005000002488008824880071248800bd
:10dbac0000c025004800de00c02488008100200051
:10dbbc00a1248800a0002000a0248800a1248800b3
:10dbcc00000320003024880020002000302588002d
:10dbdc0048258800b8248800aae4a900a0042000e5
:10dbec000025880090e1820001ff20000100600008
:10dbfc007000400090e18a006804370080c1250065
:10dc0c0010407800614060006404320090e18200b2
:10dc1c0001ff2000010060007000400090e18a00cc
:10dc2c005e043700c8f79f0020c3b300d0f79f00f5
:10dc3c0024002000050020006c8157009106200074
:10dc4c0000c0eb00324707000000e0000f0032007c
:10dc5c0010002000402488008ec0a900f00f2f0077
:10dc6c00ce20b60000602000ce20b7009ec0a800d9
:10dc7c0090e1820001ff2000010060007000400074
:10dc8c0090e18a008cc4a8004404370080c12500b0
:10dc9c001004a1000001200090e18a003f0437002d
:10dcac0091e18200010fb20000022000808f500031
:10dcbc008900320005003e000100e0000a0032003d
:10dccc00f08f500035043a001f003700000320008d
:10dcdc00808f5000e700320070004000808f5000b1
:10dcec002e043a001c01370090e182006f006000a6
:10dcfc0003003200e20f500028043a000c003700f9
:10dd0c0010002000502488008c04a800b00f2000c4
:10dd1c00b0e18a00000420000024880082c4a8001e
:10dd2c0090e182000000e80090e18a001b043700bb
:10dd3c0090e1820001ff20000100600070004000b3
:10dd4c0090e18a001504370090e182006f046000b6
:10dd5c00e20f54004b003200e40f54005400320028
:10dd6c000800e0000d043a0080e082000000e000b2
:10dd7c0002003200c5f4070088e08a008000200011
:10dd8c0030f4070080e08a000000e00006003a0052
:10dd9c0030c3b30001c22500804878000050200039
:10ddac0090e18a00fd033700e3c12500c0c12500c6
:10ddbc0008487800d0c1250008487800c2c2250068
:10ddcc0068e18a0031c0b30090c325000148780097
:10dddc00d000200050258800682588007825880010
:10ddec008825880098258800a8258800b8258800f3
:10ddfc00c8258800d8258800e8258800f8258800e3
:10de0c0008268800182688002826880038268800ce
:10de1c00482688009444e200070035001204a00054
:10de2c0000c8b3008049780000082000b0248800a6
:10de3c00aae4a800040037001204a1008849780065
:10de4c00b8248800aae4a9009424a8009424a9006a
:10de5c00c0c225001044a1001054a1009484a80055
:10de6c0030032000b0e18a006d00400000248800df
:10de7c0082c4a80090e182000000e80090e18a00d2
:10de8c00c60337009484a9009404a800b0002000b5
:10de9c00b0e18a00000420000024880082c4a8009d
:10deac0090e182000000e80090e18a00bb0337009b
:10debc00f000200060248800f00f200080248800ef
:10decc0090e1820001ff2000010060007000400022
:10dedc0090e18a00b103370090e182006f0060008e
:10deec00e10f50002100320003003900e20f500016
:10defc00aa033a0034003700b0e582000000e000cd
:10df0c000300320061f407000000eb00b0e58a006a
:10df1c0083e0820000c8b3008049780060c0b30081
:10df2c00904198008040eb00a141980010c0b300d4
:10df3c00b0419800c1419800d141980080c0b30015
:10df4c00e0419800f1419800840020000401780021
:10df5c008300780050e18200a73b070090e182002b
:10df6c000000e80090e18a008c03370051e1820048
:10df7c00314090000018a30088033200314090001b
:10df8c000008a3000e00320080e0820040409000a8
:10df9c00e94f500006003a0050c3b30001c22500ff
:10dfac00804878000050200090e18a007b03370005
:10dfbc0090e182000000e80090e18a0077033700ce
:10dfcc00253f07007503370080e082001080fb00be
:10dfdc009cf3070080007800b0e58a000000e000a8
:10dfec0006003a0030c3b30001c225008048780017
:10dffc000050200090e18a006803370080e0820026
:10e00c0090487800f04090008180fb0052e1820043
:10e01c00410198001df407000000eb0080e08a002d
:10e02c0050e182004000900086f3070080e08a00f7
:10e03c000000e00006003a0030c3b30001c2250026
:10e04c00804878000050200090e18a00530337008c
:10e05c0031c0b30090c325000148780090e18200e4
:10e06c0001ff2000010060007000400090e18a0078
:10e07c004a03370090e182006f006000e10f50000e
:10e08c001f00320003003900e20f500043033a0036
:10e09c0028003700e0c22500104078007041600075
:10e0ac003e033a0081e0820000c8b300804878004b
:10e0bc0060c0b30090409800a240980010c0b3001c
:10e0cc00b0409800c2409800d2409800b0e5820061
:10e0dc0010407800e0409800f2409800b3e58200d0
:10e0ec001382fb008200200050e18200423b0700bb
:10e0fc0090e182000000e80090e18a0027033700dd
:10e10c0051e18200314090000018a300230332003b
:10e11c00314090000008a3000400320090e182001e
:10e12c000000e80090e18a001c033700ca3e07009b
:10e13c001a03370031c0b30090c3250001487800a2
:10e14c0090e1820001ff200001006000700040009f
:10e15c0090e18a00110337000633070090e182003a
:10e16c00090060000010b00090e18a000b0337003a
:10e17c0094e18200040fb20008033a0090e182009f
:10e18c006f006000e10f50001a00320003003900ec
:10e19c00e20f500001033a0023003700f2c12500c2
:10e1ac0010c0b3000049780081e0820084487800f8
:10e1bc0050c0b3009040980012417800a2409800e3
:10e1cc00b4409800c4409800d4409800e4409800b3
:10e1dc00f4409800840178008200200050e1820015
:10e1ec005939070090e182000000e80090e18a00b4
:10e1fc00ea02370051e18200314090000018a30080
:10e20c00e6023200314090000008a3000400320006
:10e21c0090e182000000e80090e18a00df02370004
:10e22c008d3e0700dd023700c0c22500104078008b
:10e23c00614060000080fb004700dd00f2c125005a
:10e24c00e1c125009248700031c0b30090c3250095
:10e25c000148780090e18200090060000010b000d5
:10e26c0090e18a00cd02370092e18200020fb200e9
:10e27c0000022000800f51008a00320005003e0091
:10e28c000200e0000d003200f00f5100c3023a0012
:10e29c001f00370000042000800f51005101320094
:10e2ac0070004000800f5100ee013200000320008e
:10e2bc00800f5100b9023a00c2003700b1e582006c
:10e2cc00a0c325009150900001487800070037004a
:10e2dc0010049000100078006cf3070030e182000d
:10e2ec000008eb0069f3070038e18a0030e1820096
:10e2fc000000e000f6ff3a0090e1820001ff2000f0
:10e30c00010060007000400090e18a00a302370019
:10e31c0090e182006f006000e10f50001d003200a0
:10e32c0003003900e20f50009c023a00260037002f
:10e33c0083e0820000c8b3008049780060c0b3005d
:10e34c0090419800a0c325001040e900a04198001e
:10e35c0020c0b300b04198008040eb00c141980050
:10e36c00d141980080c0b300e0419800f141980081
:10e37c0084002000040178008300780050e18200c2
:10e38c009d3a070090e182000000e80090e18a00cd
:10e39c008202370051e18200314090000018a30046
:10e3ac007e023200314090000008a30004003200cd
:10e3bc0090e182000000e80090e18a0077023700cb
:10e3cc00253e070075023700600020009df2070013
:10e3dc00000478000000e00006003a0030c3b300ef
:10e3ec0001c22500804878000050200090e18a008e
:10e3fc006a02370081e08200314090004800dd0065
:10e40c00a14090008180fb00010040008df20700cc
:10e41c0000017800000c78000000e00008003a00d1
:10e42c000800780019f3070030c3b30001c22500bf
:10e43c00804878000050200090e18a005702370095
:10e44c0080e08200b0409000c808dd0020409000c1
:10e45c000080fb008080400021419800c808de004d
:10e46c003141980031e182001104980038e18a00b2
:10e47c00c2e58a00a0c325001040780040449800f3
:10e48c0031c0b30090c325000148780090e18200b0
:10e49c0001ff2000010060007000400090e18a0044
:10e4ac003e02370090e182006f006000e10f5000e7
:10e4bc002700320003003900e20f500037023a0007
:10e4cc003000370081e0820000c8b300804878003b
:10e4dc0060c0b30090409800a0c325001040e90034
:10e4ec00a040980020c0b300b04098000040eb0062
:10e4fc00c0409800d040980030e1820010007800b5
:10e50c0020409000e040980030e18200100078003c
:10e51c0030409000f040980030e18200900178008b
:10e52c00234090000080fb00334290004822dd0025
:10e53c00000272008200200050e182002e3a070097
:10e54c0090e182000000e80090e18a00130237009d
:10e55c0051e18200314090000018a3000f023200fc
:10e56c00314090000008a3000400320090e18200ca
:10e57c000000e80090e18a0008023700b63d070071
:10e58c000602370031c0b30090c325000148780063
:10e59c00a0c325009040e900014878000300320038
:10e5ac000031200090e18a00fc01370090e18200ec
:10e5bc0001ff2000010060007000400090e18a0023
:10e5cc00f601370090e18200ef006000e18f50000f
:10e5dc004100320005003900e28f50006300320028
:10e5ec00e38f5000ed013a006d003700263a07002a
:10e5fc00c0c12500104178000204e0000f003a0071
:10e60c0030e182000800370010007800c0e58a0075
:10e61c00c11e07000000e0001a003a001a3a070079
:10e62c0090e082001000900090e08a0090e0820060
:10e63c000000e000f4ff3a001200370031e18200e4
:10e64c0091e08a0001003700910090000100e00089
:10e65c000300320041409000824f5000faff3a0014
:10e66c0091e08a0091007800c1e58a00aa1e07009b
:10e67c00000478000000e00002003a00023a0700b3
:10e68c0098e08a00c0c22500104078006440600009
:10e69c000d00320090e082000000e00006003a001d
:10e6ac0090e1820001ff200001006000700040003a
:10e6bc0090e18a00b901370090e182000000e80087
:10e6cc0090e18a00b501370090e182000000e8007b
:10e6dc0090e18a00b1013700c0c22500904078005b
:10e6ec0064c160001b003a001024a00081e082008d
:10e6fc008248780032c0b3009240980010407800f5
:10e70c006840600002003200a2409800020037000e
:10e71c0040c0b300a04098000040eb00b04098000f
:10e72c00c0409800d0409800e0409800f04098001d
:10e73c000002eb00840178008200200050e182008e
:10e74c000138070090e182000000e80090e18a00a7
:10e75c009201370090e1820001ff2000010060006f
:10e76c007000400090e18a008c01370051e182007a
:10e77c00314090000018a300880132003140900015
:10e78c000008a3000400320090e182000000e800c1
:10e79c0090e18a00810137002f3d07007f0137008f
:10e7ac0090c325000148780090e082000000e00052
:10e7bc0006003a0090e1820001ff20000100600099
:10e7cc007000400090e18a007401370090e18200f3
:10e7dc0001ff2000010060007000400090e18a0001
:10e7ec006e0137009ce082000c00e00097003a00bc
:10e7fc0090e182006f006000e20f50003c0032009c
:10e80c0005003e000000e00009003200e10f50005e
:10e81c0062013a001b003700e40f50006800320020
:10e82c004d003900e50f50005c013a0077003700cd
:10e83c0081e0820000ccb3008048780030c3b30084
:10e84c0090409800ac409800bc409800cc40980098
:10e85c00dc40980020c0b300e0409800fc409800d9
:10e86c002400200043c225008200200050e18200d9
:10e87c006139070090e182000000e80090e18a0015
:10e88c004601370051e18200314090000018a3008e
:10e89c0042013200314090000008a3000e0032000b
:10e8ac0040c225001000e00006003a0090e1820012
:10e8bc0001ff2000010060007000400090e18a0020
:10e8cc0036013700bce08a0090e182000000e800cd
:10e8dc0090e18a003101370090e1820001ff2000b5
:10e8ec00010060007000400090e18a002b013700ad
:10e8fc0088e08200024c780040c3b30010449800ba
:10e90c002c4498003c449800b9e08200494498009b
:10e91c005c449800e6054400898444004ac2210006
:10e92c0069007d0041f10700804de8007c449800af
:10e93c001b82fb00e9017d0082002000880078002a
:10e94c0050e182008037070090e182000000e8006f
:10e95c0090e18a001101370051e1820031409000b2
:10e96c000018a3000d013200314090000008a300f4
:10e97c000d003200b0e082000000e800b0e08a0038
:10e98c00e60f500004003a0090e182000000e8001d
:10e99c0090e18a000101370090e182000000e9005b
:10e9ac0090e18a00fd00370090e1820001ff200019
:10e9bc00010060007000400090e18a00f700370011
:10e9cc0081e082008248780050c3b30090409800e8
:10e9dc00ac409800bc409800cc409800dc409800bb
:10e9ec00ec409800fc4098000c0278008c017800f8
:10e9fc008200200050e182005337070090e1820032
:10ea0c000000e80090e18a00e400370051e1820048
:10ea1c00314090000018a300e0003200314090001b
:10ea2c000008a300030032000050200090e18a008f
:10ea3c00da00370090e1820001ff20000100600045
:10ea4c007000400090e18a00d400370090e1820011
:10ea5c0001ff2000010060007000400090e18a007e
:10ea6c00ce00370090e082000000e00005003a0084
:10ea7c0041c3b30000c225000148780093e18a002d
:10ea8c00c600370090e182006f006000e10f50007b
:10ea9c001c00320005003900e20f50002600320045
:10eaac00e30f5000bd003a002a00370081e08200dd
:10eabc000041eb008248780090c0b3009040980071
:10eacc00c0c1250010407800a0409800b2409800ca
:10eadc00c2409800d2409800e2409800f240980062
:10eaec000002eb00840178008200200050e18200db
:10eafc001537070090e182000000e80090e18a00e1
:10eb0c00a600370051e18200314090000018a300ac
:10eb1c00a2003200314090000008a3000400320033
:10eb2c0090e182000000e80090e18a009b00370031
:10eb3c00493c07009900370031c0b30090c3250051
:10eb4c000148780090e182000000e80090e18a0022
:10eb5c009200370090e1820001f02000010060007b
:10eb6c000010b00090e18a00c0c2250001c4b300bf
:10eb7c0010c060001600320010c2250090407800d2
:10eb8c000180fb004300dd00829c250082014000d7
:10eb9c00600379008002eb00a4c1250023019000e2
:10ebac00b3019000f0c12500104078000600010070
:10ebbc000000e00079003a0090c3b30001c22500c8
:10ebcc00804878000050200090e18a0073003700e4
:10ebdc0048e1820015003700f84090000180fb00ee
:10ebec004300dd00829c2500820140006003790017
:10ebfc0088027800a4c1250023019000b301900085
:10ec0c00f0c1250010407800060001000000e00073
:10ec1c0005003a0090c3b30001c22500804878007b
:10ec2c000050200090e18a00180478000800e000f1
:10ec3c00e9ff3a005900370090e18200000fb20062
:10ec4c00f00f500055003a0090e182006f00600018
:10ec5c00e30f50000e003200e50f50001700320099
:10ec6c00e10f50004d003a009444a80050012000e0
:10ec7c00b0e18a00000420000024880082c4a800af
:10ec8c0090e182000000e80090e18a004300370028
:10ec9c009444a9009404a800b0002000b0e18a00bc
:10ecac00000420000024880082c4a80090e18200a7
:10ecbc000000e80090e18a003800370098e18a00f3
:10eccc003600370092e18200020fb20033003a00a6
:10ecdc0080002000a024880062248800f10f20000e
:10ecec0051248800c00820008224b6006f00500018
:10ecfc000024880082248800712488008c04a800d9
:10ed0c0000c225001041780040c3b300c1c6b30057
:10ed1c00804f51001500320007003e008140e80092
:10ed2c00e74f5100110032000040e900804f5100c4
:10ed3c000b003a000800370051c6b30050c3b300b3
:10ed4c00804f51000900320064404000804f510058
:10ed5c0003003a0004003700f1c6b300030037008b
:10ed6c0001c7b30001003700e1c6b3008180fb008e
:10ed7c00140020000500200022c22500f0c125004f
:10ed8c0010407800e242070090e1820001ff200071
:10ed9c00010060007000400090e18a004f0678008e
:10edac004f05be004f04be000080fa0000000600b4
:020000040000fa
:10edbc00889fbe008a9fbe008c1f7800800278005e
:10edcc000105780082047800030678008405780039
:10eddc00ec1ce200040032004f0678004f05be0028
:10edec004f04be00000006002804200018447800e0
:10edfc000884fb004544de0042c0bf007f40600039
:10ee0c000054a00042e0b7009580fb0040c22e00e9
:10ee1c00614178000241e8000281fb008500780026
:10ee2c0020e021004e220700090178008a007800ba
:10ee3c0020e021004a2207000b0178008c007800aa
:10ee4c0020e021004622070042c0bf004544dd00ff
:10ee5c0042c0bf007f4060000840700042e0b70035
:10ee6c004f0678004f05be004f04be0000000600a0
:10ee7c00ddff37000200fa00889fbe000004780016
:10ee8c0060e78000e20f500028003200e10f5000d4
:10ee9c0029003200bc040700000b0700d00d07004e
:10eeac0074160700080078006d3f07000000e000b2
:10eebc001e00320021042000914078008180fb006c
:10eecc0042c0bf007f4060000054a00042e0b70089
:10eedc00c50cde0081e780000100e00026003a004e
:10eeec0002cf2100e680570020e02100f521070029
:10eefc0082e780000200e0000600340070e780002a
:10ef0c00800f510016003c00dfb897000800780015
:10ef1c00073f070042c0bf00c548dd0042c0bf002c
:10ef2c007f4060000140700042e0b7004f04be001b
:10ef3c000080fa00000006000a1ee200d5ff3a002d
:10ef4c0008007800a24107002000200060e788003c
:10ef5c004f04be000080fa0000000600f6ff3700e8
:10ef6c000001780080e78800dfb89700080078007f
:10ef7c00ef3e0700e7ff370020e02100c421070027
:10ef8c00f03cef00d6ff3700881f78008001780036
:10ef9c00ec1ce200020032004f0478000000060076
:10efac0028042000184478000884fb004544de0047
:10efbc0042c0bf007f4060000054a00042e0b70098
:10efcc009380fb0040c22e00614178000241e800b2
:10efdc000281fb008300780020e02100e021070083
:10efec0042c0bf004544dd0042c0bf007f4060000e
:10effc000840700042e0b7004f04780000000600a3
:10f00c00e7ff3700889fbe008a1f780080017800d8
:10f01c000105780082047800ec1ce2000300320049
:10f02c004f0578004f04be000000060028042000a5
:10f03c00184478000884fb004544de0042c0bf0041
:10f04c007f4060000054a00042e0b7009380fb00ba
:10f05c0040c22e00614178000241e8000281fb00b1
:10f06c008300780020e02100bd2107000901780011
:10f07c008a00780020e02100b921070042c0bf00bf
:10f08c004544dd0042c0bf007f4060000840700076
:10f09c0042e0b7004f0578004f04be0000000600a8
:10f0ac00e2ff37001e00fa00881f7800f03cef00ea
:10f0bc00a03cef0011002000f1e488009c3cef0024
:10f0cc000a3eef00063eef00083eef00404207000c
:10f0dc0070e78800ec3cef000040eb0080e79f00fd
:10f0ec00f00f20008fb0970080806000009024000b
:10f0fc008080700081b79f00f004b30090b79f0030
:10f10c002fb0970001f02f0001006000f004b30055
:10f11c00a0b79f000002eb00830020007b8157000a
:10f12c0000f824000110200068ed07000002eb003d
:10f13c00830020007381570080f824000110200008
:10f14c0062ed07006b80570001c62e000700090016
:10f15c00315878008000b100ec1ce2000300320052
:10f16c004f0478000080fa000000060028042000fc
:10f17c00184478000884fb004544de0042c0bf0000
:10f18c007f4060000054a00042e0b7000fe0970001
:10f19c008080fb0040c22e00614178000241e800f3
:10f1ac000281fb0001fe2f008f80400020e0210037
:10f1bc006b21070042c0bf004544dd0042c0bf00c8
:10f1cc007f4060000840700042e0b7004f047800b8
:10f1dc000080fa0000000600e4ff3700889fbe00a4
:10f1ec008a9fbe008c9fbe00800478000205be0082
:10f1fc002cca21000d032000ec1ce2003b003a005d
:10f20c00e00f5500e08f5d0047003200f2e4800013
:10f21c006110b900800f5500818f5d0038003900f6
:10f22c000c007800a01cb40089007800a9ee07003f
:10f23c00f2e48000828444006110b900000555009e
:10f24c0081855d0002007800a03cb4009e3cef007c
:10f25c009e1ce200eaff3a00e0e48000e10f50005f
:10f26c00450032003600310010002000e0e4880038
:10f27c0022ca2100124178008280fb0020c42e009b
:10f28c00e14078000180fb00f0e488000104e0001c
:10f29c00dbff3a0020002000e0e48800f14f510031
:10f2ac003b003200f44f51006e0032008040eb0006
:10f2bc00ee4f5100610032000180fb00f0e4880049
:10f2cc000104e000ceff3a009c3cef00100020004f
:10f2dc00f0e48800a03cef000280fb00010020005d
:10f2ec00fd0f5000e08f5800350036000000eb0099
:10f2fc004f06be004f05be004f04be0000000600c6
:10f30c000c007800a01cb4000a0178008900780079
:10f31c0070ee07000a007800a03cb4009e3cb500db
:10f32c006055b800caff3700100020004f06be0021
:10f33c004f05be004f04be0000000600f0ff370072
:10f34c00e20f5000aeff3a0022ca210012417800b1
:10f35c009c3cef0010002000f0e48800a03cef0083
:10f36c000280fb0001002000fd0f5000e08f5800d0
:10f37c00deff3e001200370022ca21001241780045
:10f38c0020002000e0e48800f14f5100c5ff3a0056
:10f39c00a4dcbf003a003b004600de0061006000c8
:10f3ac0051ca210091407800814040000180fb004f
:10f3bc00f0e488000104e00091ff3a00c2ff37003e
:10f3cc0000600100380037004a0037006300370046
:10f3dc00650037006f003700770037008100370079
:10f3ec00c2ff3700a8003700b4003700c300370055
:10f3fc00d6003700db003700e4003700f900370097
:10f40c00040137001201370025013700470137008e
:10f41c005f01370069013700b4ff37007f01370007
:10f42c008a013700c2013700c30137008901370058
:10f43c0095013700ab013700c101370033ca2100f9
:10f44c0093417800f1c3b30001c061008040e80033
:10f45c000180fb00f0e488000104e00068ff3a0042
:10f46c0099ff370051ca2100914078000180fb00c0
:10f47c00f0e488000104e00061ff3a0092ff3700dd
:10f48c00f3c3b300834060004600de0061006000ff
:10f49c0080c040000180fb00f0e488000104e00023
:10f4ac0057ff3a0088ff370031ca2100914078009d
:10f4bc008180fb00a4dcbf004800dd00010170006e
:10f4cc0051ca2100914078008180fb00a6dcbf006e
:10f4dc004800dd008101700090f4240091f42400b8
:10f4ec00800f5100818f590080ff3a00350f0700c3
:10f4fc0043ff37005c0f0700ec1ce20040ff3a00b2
:10f50c0028042000184478000884fb004544de00e1
:10f51c0042c0bf007f4060000054a00042e0b70032
:10f52c009c80fb0040c22e00614178000241e80043
:10f53c000281fb0021ca210020e021008820070065
:10f54c0042c0bf004544dd0042c0bf007f406000a8
:10f55c000840700042e0b70029ff370030ca210094
:10f56c001a0f070026ff370032ca2100124178001b
:10f57c008280fb004208de008d0f50005bff3c00d8
:10f58c00610161008100d100e1806000a80d0700dd
:10f59c001bff370031ca2100914078000180fb002d
:10f5ac004200de008d0f500050ff3c00e1806000f7
:10f5bc00d219070012ff370031ca210091407800a0
:10f5cc000180fb004200de008d0f500047ff3c0025
:10f5dc00e3806000e28f500044ff3c00610d0700a7
:10f5ec0007ff370033ca2100934178000380fb00ea
:10f5fc004200de008d0f50003cff3c000308a300ce
:10f60c0002003200ec1ce20092013200e180610049
:10f61c000380fb004200de0098190700a31cab001e
:10f62c00f7fe3a00ec1ce200f5fe3a00280420003c
:10f63c00184478000884fb004544de0042c0bf003b
:10f64c007f4060000054a00042e0b7009c80fb00ab
:10f65c0040c22e00614178000241e8000281fb00ab
:10f66c0021ca210020e021003d20070042c0bf003c
:10f67c004544dd0042c0bf007f4060000840700080
:10f68c0042e0b700defe3700a3dcbf00f003b2009f
:10f69c008d0f500015ff3c0042ca2100124178002a
:10f6ac00ef006100e88f500010ff3c000281fb006e
:10f6bc004711de007e0d0700d1fe370031ca210054
:10f6cc00914078004208de00ef016000e88f5100a5
:10f6dc0006ff3c0063816000a4dcbf000080fb00df
:10f6ec0051ca210091407800c808dd00808070006c
:10f6fc000300780088350700c1fe370032ca2100ac
:10f70c00124178008280fb000100d100ef01600003
:10f71c00e88f5100f5fe3c00610161004708de00f6
:10f72c000000400000017100a4dcbf000080fb0061
:10f73c0051ca210091407800c808dd00808070001b
:10f74c000300780064350700adfe3700a3dcbf0072
:10f75c008d4f5000e5fe3e000080fb00360e07008a
:10f76c00a7fe370031ca21009140780001007800d3
:10f77c00f003b2008d0f5000dcfe3c008180fb00da
:10f78c00c708de00b41c07009dfe370031ca2100fb
:10f79c00914078000180fb00c602de00e38f52002e
:10f7ac00d2fe3c0063826000e20f5200cffe3c00b0
:10f7bc00c201de004301de0061016100a4dcbf0078
:10f7cc000080fb0051ca210091407800c808dd0080
:10f7dc0080807000e1816100050078000904070059
:10f7ec0087fe370031ca2100914078000180fb0070
:10f7fc004600de00e30f5000bcfe3c000101780027
:10f80c00f203b2000201e80041ca2100d60207004f
:10f81c007bfe3700a3dcbf00f003b2008d0f50005d
:10f82c00b2fe3c0043ca210093417800e3806100a2
:10f83c00e38f5000adfe3c008381fb004619de00d7
:10f84c0061016100c719de00240d07006cfe370052
:10f85c0032ca2100124178008280fb004508de008c
:10f86c0063006000e20f5000a0fe3c0045ca21007e
:10f87c00954278008581fb000302d100c219de009d
:10f88c0067016100c308de00e3806000e182620072
:10f89c0061026200e1816100ec09070058fe37004b
:10f8ac0031ca2100914078000180fb004604de0043
:10f8bc00e20f54008dfe3c0081037800f703b20088
:10f8cc008d8f530089fe3c0046ca210016437800f8
:10f8dc00f1c3b300014063000040e8000604e000ff
:10f8ec00fb003500804178000668a300fb003a005d
:10f8fc000082fb008000eb000680fb004701de006d
:10f90c004600de00610060000001410050ca210089
:10f91c0000014100810278008381fb0087007800a0
:10f92c00080078000109070035fe370046ca21009f
:10f93c00164378004230de0063016000e20f510094
:10f94c006afe3c007c406300e44f5000040032002f
:10f95c00a3dcbf00f003b2008d0f500063fe3c002f
:10f96c000648a300b1003a006c406300e44f50001d
:10f97c00ae003200c431de00e3006300a3dcbf0044
:10f98c00f003b200e1816100c30d07001cfe3700db
:10f99c0031ca21009140780063806000e20f500072
:10f9ac0052fe3c008180fb004709de00c508de00ea
:10f9bc00e3806000590c070011fe370032ca2100a9
:10f9cc0012417800e3026100e28f520047fe3c00d6
:10f9dc000228a300d600320041ca210091407800d1
:10f9ec00c808dd004510de006600600080807000f5
:10f9fc00010fb30064ca2100144278000482fb009a
:10fa0c0053ca2100934178008381fb0072ca210004
:10fa1c0005007800930b0700f9fd370033ca21006d
:10fa2c00934178008381fb0042ca21001241780087
:10fa3c004811dd000300710052ca21001241780008
:10fa4c008280fb0086140700edfd3700c71307000a
:10fa5c00ebfd370033ca2100934178000308a30063
:10fa6c0002003200ec1ce2005300320061806100a5
:10fa7c0054130700a31cab00e1fd3a00ec1ce200a0
:10fa8c00dffd3a00e9fe3700a3dcbf006f02600027
:10fa9c00e80f520015fe3c0043ca21009341780048
:10faac000304e00002003d000408a3000ffe3a002e
